:100000000C9400010C941D010C941D010C941D0115
:100010000C941D010C945B010C941D010C941D01AA
:100020000C941D010C941D010C941D010C941D01D8
:100030000C941D010C941D010C941D010C941D01C8
:100040000C94A1110C941D010C941D010C941D0124
:100050000C94CF100C948D100C941D010C941D0168
:100060000C941D010C941D010C941D010C941D0198
:100070000C941D010C941D010C941D0146726F67B8
:100080006765720043535345323031302F37323079
:10009000312070726F6A656374206279204A6965E5
:1000A00066656E6720486F75005061757365004E18
:1000B000657720746F7035207265636F72640049D4
:1000C0006E70757420796F7572206E616D653A205F
:1000D000004E657720486967682053636F72652119
:1000E0000047414D45204F5645520050726573738D
:1000F000206120627574746F6E20746F2073746158
:10010000727420616761696E00544F502D3500573D
:10011000015B015F01630167016B016F017301778F
:10012000017A017E01820186018B018F0193019783
:10013000019C01A001A401A901AD01B201B701BC5C
:1001400001C101C601CA01CD01D101D501D901DD2D
:1001500001E101E501E9017E90907FFE92926D7CC4
:10016000828245FE82827DFE929283FE9090817C07
:1001700082925DFE1010FF82FE83040202FDFE10DB
:1001800028C7FE020203FE403040FFFE2010FF7C25
:1001900082827DFE9090617C828A7C03FE909867CB
:1001A0006492924D8080FE8081FC0202FDF8040280
:1001B00004F9FC021C02FDC6281028C7E0100E102E
:1001C000E1868A92A2C37C92A27D42FE03468A9275
:1001D000634492926D182848FFE4A2A29D7C9292FB
:1001E0004D809EA0C16C92926D6492927D1B5B25A6
:1001F000643B256448001B5B324A001B5B4B0000DC
:1002000011241FBECFEFD8E0DEBFCDBF11E0A0E0CC
:10021000B1E0E4E7FCE202C005900D92A437B1071B
:10022000D9F722E0A4E7B1E001C01D92A03BB207DC
:10023000E1F70E94B80E0C9438160C940000E8E622
:10024000F0E0808182608083D99AECE6F0E08081E2
:100250008F60808310927401089580917401181644
:1002600044F5809175016FB76078F89490917401AE
:100270009230B4F021E030E091E0F901EB58FE4F0C
:100280004081F901EC58FE4F40839F5F292F30E0F9
:1002900040917401552747FD5095241735076CF39D
:1002A00090917401915090937401662319F07894A1
:1002B00008958FEF08951F920F920FB60F92112499
:1002C0002F933F934F935F936F937F938F939F935E
:1002D000AF93EF93FF93A3B1AF7080E090E04A2F0C
:1002E00050E020917401243004F59A01082E02C0D8
:1002F000359527950A94E2F720FF17C020917901E0
:1003000030E0082E02C0359527950A94E2F720FDCB
:100310000CC020917401E22FFF27E7FDF095EB5808
:10032000FE4F80832F5F20937401019684309105E6
:10033000C1F6A0937901FF91EF91AF919F918F91B9
:100340007F916F915F914F913F912F910F900FBED1
:100350000F901F9018950F931F93843051F018F44D
:10036000882339F008C0873058F1873009F059C028
:100370004AC081E057C0282F215030E0F901E658EB
:10038000FE4F8081860F803208F08052F901EE0F17
:10039000FF1FEE0FFF1FE05EFE4F40815181628123
:1003A00073818A019B0104C036952795179507959F
:1003B0008A95D2F7D901C80111E08127817032C036
:1003C000282F255030E0F901E358FE4F8081860F39
:1003D000803208F08052F901EE0FFF1FEE0FFF1F71
:1003E000E45DFE4F40815181628173818A019B01EE
:1003F00004C036952795179507958A95D2F7D901A8
:10040000C80181700FC02091810130918201C90122
:1004100002C0969587956A95E2F711E08127817071
:1004200001C080E01F910F9108958091850188237C
:1004300041F04FEF60918301809184010E94F504A7
:10044000089543E360918301809184010E94F50443
:100450000895EF92FF920F931F93CF93DF93CDB741
:10046000DEB760970FB6F894DEBF0FBECDBF282F62
:1004700030E0F901E358FE4F9081F901EE0FFF1FC4
:10048000EE0FFF1FE45DFE4F008111812281338159
:10049000FE013196DE0151960F2EFCE3EF2EF02D7A
:1004A000F12CB901A801092E04C0769567955795DE
:1004B00047950A94D2F740FF02C0E08201C0108243
:1004C0009F5F903208F09F2D3196EA17FB0749F79E
:1004D000BE016F5F7F4F8B5F0E940F0560960FB666
:1004E000F894DEBF0FBECDBFDF91CF911F910F916A
:1004F000FF90EF900895AF92BF92DF92EF92FF923C
:100500000F931F93CF93DF93CDB7DEB760970FB6EE
:10051000F894DEBF0FBECDBF482F50E0FA01E65879
:10052000FE4F9081FA01EE0FFF1FEE0FFF1FE05EFE
:10053000FE4F0081118122813381FE0131965E01DF
:1005400061E1A60EB11C0F2EF4E0EF2EF1E0FF2EBC
:10055000F02DE40EF51ED12CB901A801092E04C01E
:1005600076956795579547950A94D2F740FF04C052
:10057000D7014C91408301C010829F5F903208F0F8
:100580009D2D3196EA15FB0539F7BE016F5F7F4F50
:100590008F5F0E940F0560960FB6F894DEBF0FBE06
:1005A000CDBFDF91CF911F910F91FF90EF90DF9022
:1005B000BF90AF900895CF93DF93CDB7DEB760972C
:1005C0000FB6F894DEBF0FBECDBFFE0131969E017F
:1005D0002F5E3F4F92E19193E217F307E1F7BE01DF
:1005E0006F5F7F4F0E940F0560960FB6F894DEBFD5
:1005F0000FBECDBFDF91CF910895EF92FF920F9381
:100600001F93CF93DF93CDB7DEB760970FB6F89403
:10061000DEBF0FBECDBFA0917F01B09180010091E0
:10062000810110918201FE013196BF01AE014F5E42
:100630005F4FEE24EA940F2EF2E1FF2EF02DCF0152
:10064000861B970B9D01082E02C0369527950A94AC
:10065000E2F720FF02C0F0820BC0980102C036957D
:1006600027958A95E2F720FF02C0E08201C0108240
:100670003196E417F50719F7BE016F5F7F4F87E0EA
:100680000E940F0560960FB6F894DEBF0FBECDBF77
:10069000DF91CF911F910F91FF90EF9008958430DB
:1006A00049F018F4882331F008C0873050F08730C3
:1006B00071F40BC00E94DB02089581500E947B02FE
:1006C000089585500E94290208950E94FD02089510
:1006D000109283010E9489126FE070E00E94C6119F
:1006E0008093840181E0809385010E941502089522
:1006F000CF93DF930E948B11CB010E948E120E9438
:100700008912CFE1D0E0BE010E94C61180937A0128
:100710000E948912BE010E94C61180937B010E9433
:100720008912BE010E94C61180937C010E94891229
:10073000BE010E94C61180937D010E948912BE01F4
:100740000E94C61180937E018BED96EB9093800101
:1007500080937F0190938201809381010E944E05D6
:1007600080E00E94DB0284E00E94DB0280E00E94C5
:100770007B0281E00E947B0282E00E947B0280E09B
:100780000E94290281E00E9429020E94FD020E942B
:100790006803DF91CF910895CF93809183010E94E8
:1007A0004F03C0918301CF5F609184018C2F0E9421
:1007B000AB0180938501C09383010E941502809153
:1007C00085018823B9F080918301873099F481E015
:1007D00090E00090840102C0880F991F0A94E2F70C
:1007E0002091810130918201822B932B9093820181
:1007F00080938101CF910895CF93809183018823C5
:1008000081F00E944F03C0918301C1506091840127
:100810008C2F0E94AB0180938501C09383010E94BD
:100820001502CF910895CF9380918401882391F090
:10083000809183010E944F03C0918401C1506C2FAD
:10084000809183010E94AB0180938501C093840154
:100850000E941502CF910895CF93809184018F302B
:1008600091F0809183010E944F03C0918401CF5F7A
:100870006C2F809183010E94AB0180938501C0930E
:1008800084010E941502CF91089581E08093850133
:10089000089510928501089581E0209181013091A1
:1008A00082012F3F3F4F09F080E0089581E0909151
:1008B0008301973009F080E00895809185010895C3
:1008C000FF920F931F93CF93DF93F82E80918301B4
:1008D000082F112707FD10952F2D30E0E9012196F3
:1008E000F901E658FE4F9081961B32F4F901E65863
:1008F000FE4F9FE190830BC090322CF4F901E65833
:10090000FE4F908304C0F901E658FE4F10826091BB
:1009100084010E94AB01809385018F2D0E947B0290
:100920000C171D0711F40E941502DF91CF911F9142
:100930000F91FF900895CF93282F30E0E09183012D
:10094000FF27E7FDF095A9014B5F5F4FC1E0E4177A
:10095000F50709F0C0E0CC23B9F0613039F490918B
:1009600084019F3061F4109285010EC06F3F39F40D
:1009700090918401911103C01092850105C090915E
:100980008401960F90938401F901E358FE4F908102
:10099000961B32F4F901E358FE4F9FE190830BC0A0
:1009A00090322CF4F901E358FE4F908304C0F90112
:1009B000E358FE4F10820E942902C1110E941502C5
:1009C000CF91089543E360918301809184010E9457
:1009D000F504089580E480937C0086E880937A0093
:1009E000089580E80E94221108951F93CF93DF930A
:1009F000D82F162FC42F81E00E944A11177080E172
:100A0000189FB00111248D2F8F70862B0E944A11E0
:100A10008C2F0E944A11DF91CF911F9108950F935F
:100A20001F93CF93DF93C82F062F172F82E00E94CA
:100A30004A118C2F87700E944A11C02FD12F10E0CD
:100A400089910E944A111F5F1031D1F7DF91CF9138
:100A50001F910F9108950F931F93CF93DF93C82F8A
:100A6000062F172F83E00E944A118C2F8F700E944F
:100A70004A11C02FD12F10E089910E944A111F5FA7
:100A80001830D1F7DF91CF911F910F91089584E035
:100A90000E944A1182E00E944A1108958FE00E944C
:100AA0004A1108950E94F1040E941F0140E060E095
:100AB0007BE480E090E00E9433100E9473117894F0
:100AC00008950E9478030E9461110E94C70E0E943F
:100AD0002D010E94881008958F929F92AF92BF922D
:100AE000CF92DF92EF92FF920F931F93CF93DF93FA
:100AF000CDB7DEB764970FB6F894DEBF0FBECDBF9B
:100B000062E070E08AE090E00E94501189E091E09C
:100B10009F938F930E94ED120F900F90EE24E39419
:100B2000F12C03E010E05E018BE0A80EB11CCC2498
:100B3000C394D12CCC0EDD1E0F2EF4E38F2EF1E0EA
:100B40009F2EF02D4AE050E0B701C5010E94141518
:100B5000B701665F7F4F4AE050E0C6010E9414155E
:100B6000B8018AE090E00E945011DF92CF92BF92CC
:100B7000AF929F928F920E94D9120F5F1F4F84E114
:100B8000E80EF11C0F900F900F900F900F900F90A8
:100B900008301105B9F664960FB6F894DEBF0FBEA3
:100BA000CDBFDF91CF911F910F91FF90EF90DF901C
:100BB000CF90BF90AF909F908F900895CF93DF9389
:100BC0000E9461110E946C050E94D70EEC010E94E8
:100BD000DC0EBE010E94E10E892B71F06AE070E02C
:100BE0008AE090E00E94501181ED90E09F938F93F6
:100BF0000E94ED120F900F906BE070E08AE090E0A1
:100C00000E9450110E94DC0E9F938F9388E491E024
:100C10009F938F930E94D9126CE070E08AE090E07D
:100C20000E9450110E94D70E9F938F938DE491E004
:100C30009F938F930E94D9126EE070E08AE090E05B
:100C40000E94501181EE90E09F938F930E94ED12CD
:100C50006FE070E08AE090E00E9450118BEE90E02F
:100C60009F938F930E94ED128DB79EB70C960FB68F
:100C7000F8949EBF0FBE8DBF0E942D018F3FE1F300
:100C8000DF91CF9108952F923F924F925F926F9292
:100C90007F928F929F92AF92BF92CF92DF92EF920C
:100CA000FF920F931F93CF93DF93CDB7DEB7CA5553
:100CB000D1090FB6F894DEBF0FBECDBF80EF81B96A
:100CC00080EE82B98FEF87B984E08AB98AE0E6E1E5
:100CD000F1E0DE015F9601900D928A95E1F76CE0FC
:100CE00070E08AE090E00E9450110E94DC0E9F9319
:100CF0008F9388E491E09F938F930E94D9126EE0C6
:100D000070E08AE090E00E9450110E94D70E9F93FD
:100D10008F938DE491E09F938F930E94D91260E1AD
:100D200070E08AE090E00E9450111F9283E08F9360
:100D300087E591E09F938F930E94D9120E948B11B7
:100D400069837A838B839C836D837E838F8398876B
:100D500069877A878B879C876D877E878F87988B3B
:100D6000698B7A8B8B8B9C8B0E948B114B015C0166
:100D70000FB6F894DEBF0FBECDBF512C91E0669642
:100D80009FAF6697E1E06796EFAF6797F1E06596F2
:100D9000FFAF65972A961FAE2A970F2EF4E14F2ECC
:100DA000F02D23E02B962FAF2B9761E068966FAF65
:100DB000689769961FAE6997CE01459629969FAFB1
:100DC0008EAF29970F2EFAE76F2E712CF02D342C51
:100DD000252CDEC60E948B119501840108511C4F01
:100DE0002F4F3F4F601771078207930748F031106C
:100DF00002C00E9449043A940E948B114B015C018D
:100E00002A969FAD2A97E1E09E272A969FAF2A97C0
:100E10009130A9F4F9E0F31590F42DEC329E812D78
:100E20001124869586958695EFE1F0E0EC0FFD1F85
:100E3000E80FF11D808188B964E06BB918C09DECA2
:100E4000399E812D1124869586958695880F982F39
:100E5000990F990F890FE32DE81B8E2FEFE1F0E03A
:100E6000EC0FFD1FE80FF11D808188B91BB80E94AF
:100E70004C04882309F45CC06896FFAD6897FF5F57
:100E80006896FFAF689718B81F92FF9381E691E0CC
:100E90009F938F932996FFAD2997FF9328962FADA7
:100EA00028972F930E9416130E94F00ECE014596AC
:100EB0000E94FC0E0F900F900F900F900F900F90CC
:100EC0006FE789EA93E0615080409040E1F700C00D
:100ED00000000E94090F8111F3CF2B96EFAD2B97E5
:100EE000E330E0F4EF5F2B96EFAF2B9782B1880FE2
:100EF00082B960E170E08AE090E00E9450111F9298
:100F00002B96FFAD2B97FF9387E591E09F938F93EF
:100F10000E94D9120F900F900F900F900E947803AB
:100F20000E948B114B015C010F2EF4E13F2EF02D3E
:100F30000E942D01182F8F3F59F50E9481108823A0
:100F400059F1EAEAF2E0808191810E949912082F1A
:100F50006996FFAD6997F11103C08B3199F420C0F8
:100F600069962FAD6997213041F48B3509F1699667
:100F70001FAE6997FF24FA9428C069966FAD6997F0
:100F80006230F1F069961FAE6997FF24FA941DC094
:100F9000FF24FA940FEF19C0FF24FA940FEF15C045
:100FA00081E069968FAF6997FF24FA940FEF0DC027
:100FB00092E069969FAF6997FF24FA940FEF05C0FE
:100FC000F82E69961FAE69970FEF211006C0ECE767
:100FD000F0E080818E7F808305C0ECE7F0E08081C7
:100FE00081608083F301808180648083F30180814C
:100FF00086FDFCCF4090780050907900211008C009
:10100000C20181599140873C910508F4C6C50AC0C8
:10101000F1E02F1207C0C20181599140873C910530
:1010200008F4C0C565962FAD6597213071F46796B9
:101030006FAD6797613049F404C081E067968FAF68
:10104000679791E066969FAF66972110C4C0E0E96C
:101050004E16E1E05E0608F05CC06696FFAD66974E
:10106000F13099F50E948B1164966CAF7DAF8EAF15
:101070009FAF6497C201855691098B329140A0F4CD
:10108000C601895592408B329140B0F0C601855619
:1010900091098B329140A8F066961FAE6697FCE6E8
:1010A0006096FFAF609711C066961FAE66972CE6FC
:1010B00060962FAF609709C06CE660966FAF60973F
:1010C00004C08CE660968FAF60970E948B11649687
:1010D0002CAD3DAD4EAD5FAD64972C503E4F4F4FA4
:1010E0005F4F261737074807590780F40E948B1176
:1010F00064966CAF7DAF8EAF9FAF649765961FAE61
:1011000065979CE660969FAF609703C065961FAE9B
:101110006597E9E54E16E2E05E0608F472C1669650
:10112000FFAD6697F130A9F50E948B1164966CAF04
:101130007DAF8EAF9FAF6497C201895592408B32CD
:101140009140B0F4C601895592408B329140C0F075
:1011500085E6C81AD1089BE2C91691E0D906A8F025
:1011600066961FAE6697E2E76096EFAF609711C094
:1011700066961FAE6697F2E76096FFAF609709C06C
:1011800022E760962FAF609704C062E760966FAF6A
:1011900060970E948B1164962CAD3DAD4EAD5FAD56
:1011A00064972C503E4F4F4F5F4F26173707480725
:1011B000590708F01FC10E948B1164966CAF7DAF78
:1011C0008EAF9FAF649765961FAE659782E7609676
:1011D0008FAF609716C194E649165104C0F5669624
:1011E000EFAD6697E13079F40E948B1164966CAF95
:1011F0007DAF8EAF9FAF649766961FAE6697F4E69D
:101200006096FFAF60970E948B1164962CAD3DAD48
:101210004EAD5FAD64972C503E4F4F4F5F4F26173A
:1012200037074807590780F40E948B1164966CAF0A
:101230007DAF8EAF9FAF649767961FAE679724E62A
:1012400060962FAF609703C067961FAE6797C20185
:10125000855691098B32914008F044C0C6018556ED
:1012600091098B32914030F0C601895592408B3202
:101270009140C0F566962FAD6697213079F40E94B3
:101280008B1164966CAF7DAF8EAF9FAF64976696FF
:101290001FAE669764E660966FAF60970E948B11F1
:1012A00064962CAD3DAD4EAD5FAD64972C503E4F76
:1012B0004F4F5F4F261737074807590780F40E94A2
:1012C0008B1164966CAF7DAF8EAF9FAF64976796BE
:1012D0001FAE679784E660968FAF609703C06796EE
:1012E0001FAE6797C201895592408B32914008F03A
:1012F00047C0C601855691098B32914048F029E5D7
:10130000C21A22E0D20A6BE2C61661E0D606C0F528
:1013100066968FAD6697813079F40E948B11649642
:101320006CAF7DAF8EAF9FAF649766961FAE66972A
:1013300095E760969FAF60970E948B1164962CADE5
:101340003DAD4EAD5FAD64972C503E4F4F4F5F4F5C
:10135000261737074807590780F40E948B116496B7
:101360006CAF7DAF8EAF9FAF649767961FAE6797E8
:10137000E5E76096EFAF609703C067961FAE67978B
:10138000F5E84F16F3E05F06E0F166962FAD66973D
:10139000213079F40E948B1164966CAF7DAF8EAFD3
:1013A0009FAF649766961FAE669765E760966FAFCE
:1013B00060970E948B1164962CAD3DAD4EAD5FAD34
:1013C00064972C503E4F4F4F5F4F26173707480703
:1013D0005907A0F40E948B1164966CAF7DAF8EAF5D
:1013E0009FAF649767961FAE679785E760968FAF4C
:1013F000609707C065961FAE659703C067961FAEDE
:10140000679791E029261F3F51F00E948B112F967C
:101410006CAF7DAF8EAF9FAF2F97133061F0E4E4D8
:10142000FE1649F00C3439F00C3629F06096FFAD09
:101430006097FC3639F40E9413042DE660962FAFB6
:101440006097A9C0123061F061E4F61649F00535E5
:1014500039F0053729F060968FAD6097853739F4FC
:101460000E94CC039DE660969FAF609794C01130B8
:1014700061F0E2E4FE1649F0043439F0043629F054
:101480006096FFAD6097F43639F40E94FC032DE6B8
:1014900060962FAF60977FC0112361F063E4F6166A
:1014A00049F0023539F0023729F060968FAD609728
:1014B000823739F40E942C049DE660969FAF6097B6
:1014C0006AC0003719F0003509F05AC06AE070E0D0
:1014D0008AE090E00E94501189EA90E09F938F93F8
:1014E0000E94ED12EDEC3E9E912D1124969596955D
:1014F0009695892F880F282F220F220F820FF32D08
:10150000F81B0F900F900F2EFFE1EF2EF12CF02D16
:10151000EC0EFD1EE90EF11C0FE110E00C0F1D1F7B
:101520000F0F111D2A96DFAC2A9721E0D226D21286
:1015300009C069E0631530F4F701808188B9F4E0EF
:10154000FBB904C0F801808188B91BB80E948110E2
:10155000882359F3EAEAF2E0808191810E9499128E
:10156000803711F0803509F72A96DFAE2A976AE0B6
:1015700070E08AE090E00E9450110E946A110BC056
:101580000E3611F00E3439F40E9461050E944306B4
:101590000E94DE05F9CF0E945D04882331F10E948C
:1015A0005604882311F10E94680381E090E00E94B4
:1015B000CC0E0E948B114B015C016EE070E08AE062
:1015C00090E00E9450110E94D70E9F938F938DE45C
:1015D00091E09F938F930E94D9120F900F900F90DC
:1015E0000F900F2EF4E13F2EF02D0E948B112F96BD
:1015F0000CAD1DAD2EAD3FAD2F970C501E4F2F4F94
:101600003F4F061717072807390700F583B18F707A
:10161000883011F40E94130483B18F70843011F468
:101620000E94CC0383B18F70823011F40E94FC03BE
:1016300083B18F70813011F40E942C040E948B11B1
:101640002F966CAF7DAF8EAF9FAF2F970E948B11FF
:101650006B017C010E94D70E9C0121503109223080
:10166000310518F008EE13E002C006EB13E09C0110
:10167000235031092230310510F40B5411099C011B
:10168000255031092330310510F4045611099C010D
:10169000285031092230310510F40D5711099C01F1
:1016A0002A5031092330310510F4065911099C01E3
:1016B0002D5031092230310510F40F5A11099C01C7
:1016C0002F5031092530310510F4085C1109449779
:1016D00010F00A5F11090E945D04882309F478C0A4
:1016E000C8018456910949815A816B817C81480FD8
:1016F000591F611D711DC416D506E606F70648F090
:1017000061E080E00E946004C982DA82EB82FC82A0
:101710005FC0C801865991094D815E816F817885CE
:10172000480F591F611D711DC416D506E606F70640
:1017300048F06FEF81E00E946004CD82DE82EF828C
:10174000F88646C089859A85AB85BC85800F911F38
:10175000A11DB11DC816D906EA06FB0648F061E0D6
:1017600082E00E946004C986DA86EB86FC8630C07F
:10177000C8018C599F4F4D855E856F857889480FCC
:10178000591F611D711DC416D506E606F70648F0FF
:101790006FEF80E00E949B04CD86DE86EF86F88A9C
:1017A00017C008531F4F89899A89AB89BC89800F5C
:1017B000911FA11DB11DC816D906EA06FB0640F00F
:1017C00061E081E00E949B04C98ADA8AEB8AFC8A84
:1017D0000E945D048111DBC12B96FFAD2B97F15068
:1017E0002B96FFAF2B9782B1869582B9F111ACC1D0
:1017F00018B80BE010E0E12CF12C0F2EF4E6AF2E20
:10180000F02D6B968EAC9FAC6B97B02EC02ED12E68
:101810004AE050E0602F712FCE01CD960E94141542
:101820008DAD90E09C01205331092AF08EAC912CB3
:1018300020E3821A91084EAD50E09A0120533109FD
:1018400092F04C01880C991CBC01660F771F660F43
:10185000771F660F771F860E971E60EE861A61E06F
:10186000960A820E931E6FAD70E060537109C2F04C
:10187000A89EB001A99E700D1124CA01880F991F5E
:10188000440F551F440F551F440F551F480F591F34
:10189000CB01840F951F805A94414901880E991EEF
:1018A0000E94D70E881699060CF043C184E0E81612
:1018B000F104D9F184E090E04C018E189F081814CF
:1018C00019049CF5E12CF12C0F2EFDE3AF2EF02D29
:1018D0004AE050E06A2D70E0CE01C3960E941415D4
:1018E0000A2D10E0B801665F7F4F4AE050E0CE015C
:1018F00089960E941415B8016C5E7F4F4AE050E053
:10190000CE01C3960E942C15B801625E7F4F4AE05B
:1019100050E0CE0189960E942C159CEEA90EEFEFA7
:10192000EE1AFE0AE814F90499F60E94611169E0C2
:1019300070E084E190E00E9450118FEA90E09F9364
:101940008F930E94ED126BE070E08AE090E00E94BD
:1019500050118FEB90E09F938F930E94ED127E01C8
:10196000F9E2EF0EF11C0F900F900F900F9000E036
:1019700010E00F2EFAEA8F2EF2E09F2EF02D11C00C
:10198000FE01E00FF11F11A60E94D70E0A97B8F4CE
:1019900011C0F70121937F010F5F1F4F99270E940C
:1019A0000F13F401808191810E949912282F8A30AF
:1019B00081F7E6CF0E94D70E805D8DAF1EAE0E94EC
:1019C000D70E8436910588F50E94D70E0A9768F1E4
:1019D0000E94D70E9C01ADECBCEC0E94F6119695CE
:1019E00087959695879596958795805D8DAF0E9492
:1019F000D70EAC019C01ADECBCEC0E94F6119695A3
:101A0000879596958795969587959C01220F331F0C
:101A1000880F991F880F991F880F991F820F931F96
:101A2000481B590B405D4EAF1FAE0E94D70E883E3B
:101A3000934008F06BC00E94D70E8436910508F4DD
:101A400065C00E94D70E9C0136952795369527953F
:101A5000ABE7B4E10E94F61196958795805D8DAF56
:101A60000E94D70EAC019C01369527953695279597
:101A7000ABE7B4E10E94F6119695879514E6189F9E
:101A80009001199F300D1124CA01821B930B9C01F8
:101A9000ADECBCEC0E94F6119695879596958795CE
:101AA00096958795805D8EAF0E94D70EAC019C0104
:101AB0003695279536952795ABE7B4E10E94F61148
:101AC00096958795189F9001199F300D1124421B00
:101AD000530B9A01ADECBCEC0E94F61196958795DC
:101AE00096958795969587959C01220F331F880FB1
:101AF000991F880F991F880F991F820F931F481BEA
:101B0000590B405D4FAF21961FAE21976B2D70E0B2
:101B10006A5071094AE050E0CE0189960E942C1566
:101B20004AE050E06C2D7D2DCE01CD960E942C1503
:101B300044C09FEFE91AF90A0C5E1F4FE5E0EE166C
:101B4000F10409F062CE39C00E94E2040E9445040B
:101B50000E9468030E948B114B015C0160E170E000
:101B60008AE090E00E9450111F922B96FFAD2B97B8
:101B7000FF9387E591E09F938F930E94D9120F9076
:101B80000F900F900F900F2EF4E13F2EF02D620179
:101B90000E945D0481111EC910C021E065962FAF1F
:101BA000659740CA65966FAD6597613009F445CA7F
:101BB00081E067968FAF67970ECBC65ADF4F0FB69F
:101BC000F894DEBF0FBECDBFDF91CF911F910F9173
:101BD000FF90EF90DF90CF90BF90AF909F908F904D
:101BE0007F906F905F904F903F902F9008950E944C
:101BF00061110E946C056AE070E08AE090E00E944A
:101C000050118CE790E09F938F930E94ED126CE04F
:101C100070E08AE090E00E94501184E890E09F9389
:101C20008F930E94ED120E944E058FE30E94F90EE1
:101C30000E94F00E0F900F900F900F908AE691E0A7
:101C40000E94FC0E0DC02FE789EA93E021508040EE
:101C50009040E1F700C000000E942D018F3F29F461
:101C60000E94090F882351F3EECF08953F924F92BF
:101C70005F926F927F928F929F92AF92BF92CF921C
:101C8000DF92EF92FF920F931F93CF93DF93CDB725
:101C9000DEB764970FB6F894DEBF0FBECDBF01E08C
:101CA00010E00F2EFAE0AF2EF02D6E018BE0C80E83
:101CB000D11C0F2EF5E44F2EF02D0F2EFDE65F2EDA
:101CC000F02D0F2EF0E76F2EF02D0F2EF4E77F2E64
:101CD000F02D0F2EF9E78F2EF02DEE24E394F12C4A
:101CE000EC0EFD1E0F2EF0E39F2EF02D802F912F76
:101CF0000E9424158F3FF9F4F6018A2D11928A95DE
:101D0000E9F74B865C866D867E868F86F7018A2D85
:101D100011928A95E9F799824AE050E0602F712F7D
:101D2000C6010E942C15B801665F7F4F4AE050E063
:101D3000C7010E942C150C5E1F4F05361105B1F628
:101D400064960FB6F894DEBF0FBECDBFDF91CF9182
:101D50001F910F91FF90EF90DF90CF90BF90AF90C9
:101D60009F908F907F906F905F904F903F900895DD
:101D70000E9452050E94360E0E94EA040E94F70D4E
:101D80000E9461050E9443060E94DE05F9CF109271
:101D9000950110929401089520919401309195013C
:101DA000820F931F909395018093940108958091E1
:101DB00094019091950108958091860190918701F9
:101DC00008958617970738F470938701609386010A
:101DD00021E030E002C020E030E0822F932F089510
:101DE000109289011092880110928B0110928A0141
:101DF0000895809307010895109289011092880137
:101E000010928B0110928A0190938D0180938C0126
:101E100008950F931F93CF93DF93CDB7DEB7289725
:101E20000FB6F894DEBF0FBECDBFE0918801F091F0
:101E30008901309781F0149110FF06C0109289013A
:101E40001092880100E06CC03196F0938901E09314
:101E5000880100E065C0E0918A01F0918B01309724
:101E600009F44AC08191F0938B01E0938A018111BA
:101E70000AC010928B0110928A0180E180938E013A
:101E800000E010E04DC0982F91569A3178F4E82F79
:101E9000F0E0EE0FFF1FE35BFF4F8591949180937D
:101EA00088019093890100E010E03AC0982F915486
:101EB0009A3178F4E82FF0E0EE0FFF1FE357FF4F61
:101EC00085919491809388019093890100E010E0BE
:101ED00027C0982F90539A3008F5E82FF0E0EE0FC6
:101EE000FF1FED51FF4F859194918093880190934E
:101EF000890100E010E014C080918C0190918D0167
:101F000001E0009709F000E090938B0180938A0133
:101F100010928D0110928C0110E002C000E010E0E0
:101F20000E94470530910701FE013896CE010196C7
:101F3000212F220F220B23232083110F3197E81723
:101F4000F907B1F71982BE016F5F7F4F8FE00E94E2
:101F50002B0580918E01882319F0815080938E018A
:101F6000002349F021E030E080918E01882329F0A0
:101F700020E030E002C020E030E081E0211180E08C
:101F800028960FB6F894DEBF0FBECDBFDF91CF917C
:101F90001F910F910895CF93C82F8A3019F48DE0C7
:101FA0000E94CB0F2FB7207802C0222329F19091F5
:101FB00097019F3FD1F3F89480919601E82FF0E0CC
:101FC000E856FE4FC0838F5F809396018091970102
:101FD0008F5F80939701809196018F3F11F410924B
:101FE0009601E1ECF0E0808180628083222339F069
:101FF000789420E030E005C021E030E002C020E02D
:1020000030E0822F932FCF9108958091A9028823E9
:10201000E1F32FB72078F894809197023091A902CC
:1020200090E0831B91095AF4E09197028091A902F4
:10203000F0E0E81BF109E855FD4F80810AC0E0910E
:1020400097028091A902F0E0E81BF109E856FD4FE4
:1020500080819091A90291509093A902222309F0C6
:10206000789490E008951092960110929701109242
:1020700097021092A9021092A80240938F01DC01EE
:10208000CB01880F991FAA1FBB1F880F991FAA1F7A
:10209000BB1F9C01AD01220F331F441F551F60E081
:1020A00072E18AE790E00E94DA11DA01C901019633
:1020B000A11DB11DAC01BD01BB2324F44F5F5F4FD7
:1020C0006F4F7F4FDB01CA01B595A795979587950F
:1020D0009C01215031093093C5002093C400E1ECEC
:1020E000F0E088E1808380818068808388E091E0EF
:1020F0009093AD028093AC029093AB028093AA02BE
:1021000008959091A90281E0911101C080E00895A5
:10211000109297021092A90208951F920F920FB683
:102120000F9211242F938F939F93EF93FF9380919E
:102130009701882329F1809196012091970190E0E1
:10214000821B91095AF4E091960180919701F0E089
:10215000E81BF109E956FD4F80810AC0E091960124
:1021600080919701F0E0E81BF109E856FE4F80816D
:10217000909197019150909397018093C60005C06C
:10218000E1ECF0E080818F7D8083FF91EF919F9162
:102190008F912F910F900FBE0F901F9018951F9247
:1021A0000F920FB60F9211242F933F934F935F938B
:1021B0006F937F938F939F93AF93BF93CF93EF933F
:1021C000FF93C091C60080918F01882349F08091D0
:1021D00097018F3F29F060E070E08C2F0E94CB0FB9
:1021E0008091A902803120F081E08093A80218C07C
:1021F000CD3009F4CAE080919702E82FF0E0E8566C
:10220000FD4FC0838F5F809397028091A9028F5FFB
:102210008093A90280919702803111F41092970265
:10222000FF91EF91CF91BF91AF919F918F917F914E
:102230006F915F914F913F912F910F900FBE0F9033
:102240001F90189594B1906B94B92C9A90E59CBD11
:10225000883021F0803211F0823019F491E09DBD78
:1022600001C01DBC803269F028F4883071F08031E3
:1022700079F40BC0803429F0803851F48CB581603A
:102280008CBD8CB582608CBD03C08CB581608CBD6B
:102290002C9808958EBD0DB407FEFDCF8EB5089520
:1022A0009F938F937F936F938DEE91E09F938F9386
:1022B0000E94ED120F900F900F900F900F900F90C3
:1022C000089586EF91E09F938F930E94ED120F90F7
:1022D0000F9008958BEF91E09F938F930E94ED12E2
:1022E0000F900F900895109290011092910110920A
:1022F00092011092930116BC8CE787BD82E084BDE9
:1023000083E085BDEEE6F0E080818260808385B366
:10231000827085BB08950F931F938FB7F894009137
:1023200090011091910120919201309193018823A5
:102330000CF47894602F712F822F932F1F910F919F
:1023400008951F920F920FB60F9211248F939F93AF
:10235000AF93BF938091900190919101A0919201D0
:10236000B09193010196A11DB11D809390019093AE
:102370009101A0939201B0939301BF91AF919F916E
:102380008F910F900FBE0F901F90189597FB072EFF
:1023900016F4009407D077FD09D00E94021207FCC2
:1023A00005D03EF4909581959F4F08957095619565
:1023B0007F4F0895052E97FB16F4009407D057FD24
:1023C0000DD00E94161207FC09D07EF490958095DE
:1023D000709561957F4F8F4F9F4F08955095409511
:1023E000309521953F4F4F4F5F4F0895A29FB00109
:1023F000B39FC001A39F01D0B29F700D811D112416
:10240000911D0895AA1BBB1B51E107C0AA1FBB1F4A
:10241000A617B70710F0A61BB70B881F991F5A9570
:10242000A9F780959095BC01CD010895A1E21A2EDF
:10243000AA1BBB1BFD010DC0AA1FBB1FEE1FFF1F68
:10244000A217B307E407F50720F0A21BB30BE40BB8
:10245000F50B661F771F881F991F1A9469F76095FF
:102460007095809590959B01AC01BD01CF010895B9
:102470008F929F92AF92BF92CF92DF92EF92FF9294
:10248000CF93DF93EC01688179818A819B8161150B
:1024900071058105910521F464E279ED8BE597E002
:1024A0002DE133EF41E050E00E94DA1149015A0179
:1024B0009B01AC01A7EAB1E40E94EE156B017C011F
:1024C000ACEEB4EFA50194010E94FC15C60ED71E18
:1024D000E81EF91EF7FE06C081E0C81AD108E1081F
:1024E00080E8F80AC882D982EA82FB82E894D7F8A9
:1024F000EE24FF24C601DF91CF91FF90EF90DF9093
:10250000CF90BF90AF909F908F9008950E94381207
:10251000089580E091E00E9438120895A0E0B0E0B4
:102520008093000190930101A0930201B0930301F5
:102530000895CF93DF93EC013B8130FF34C036FF29
:102540000AC03F7B3B838E819F8101969F838E8350
:102550002A8130E02AC032FF0FC0E881F9818081F2
:10256000992787FD9095009719F430623B831BC033
:102570003196F983E8830EC0EA85FB85099597FFBC
:1025800009C02B81019611F480E101C080E2822B09
:102590008B8309C02E813F812F5F3F4F3F832E8366
:1025A0009C01332702C02FEF3FEFC901DF91CF918C
:1025B0000895A0E0B0E0EFEDF2E10C941116FE01F9
:1025C000359661917191AF018091AC029091AD020D
:1025D0000E943813E2E00C942D16A0E0B0E0E3EF87
:1025E000F2E10C940F16FE013796619171910CEA9D
:1025F00012E0D8018D919C91DC0113962C911397D8
:10260000286013962C93AF010E943813D801ED91E6
:10261000FC912381277F2383E4E00C942B166091A7
:10262000AC027091AD020E9464150895AEE0B0E076
:10263000ECE1F3E10C940F160D891E8986E08C8382
:102640001A8309838FEF9FE79E838D83CE0149967E
:10265000AC016F89788DCE0101960E943813EF810D
:10266000F885E00FF11F10822E96E4E00C942B16F3
:10267000ACE0B0E0EEE3F3E10C9401167C016B01F9
:102680008A01FC0117821682838181FFC6C18824DA
:102690008394912C8C0E9D1EF7019381F60193FD7E
:1026A000859193FF81916F01882309F4B2C185322E
:1026B00039F493FD859193FF81916F01853229F45F
:1026C000B70190E00E946415E7CF512C312C20E037
:1026D0002032A8F48B3261F028F4803251F083323A
:1026E00071F40BC08D3239F0803349F4216028C079
:1026F0002260246025C0286023C0206121C027FDFE
:1027000027C0382F30533A3078F426FF06C0FAE05D
:102710005F9E300D1124532E13C08AE0389E300D79
:102720001124332E20620CC08E3221F426FD71C19B
:10273000206406C08C3611F4206802C0883641F44B
:10274000F60193FD859193FF81916F018111C0CFB7
:10275000982F9554933018F09052933028F40C5FD2
:102760001F4FFFE3F9830DC0833631F0833771F0DB
:10277000833509F05EC023C0F801808189830E5F34
:102780001F4F44244394512C540115C03801F2E0EA
:102790006F0E711CF801A080B18026FF03C0652D6B
:1027A00070E002C06FEF7FEFC5012C870E945915C2
:1027B0002C0183012C856FE7262E222218C03801B8
:1027C000F2E06F0E711CF801A080B18026FF03C0FB
:1027D000652D70E002C06FEF7FEFC5012C870E946E
:1027E0004E152C012C8550E8252E222A830123FC2E
:1027F0001CC006C0B70180E290E00E9464153A94C4
:10280000832D90E048165906A8F30FC0F50127FC68
:10281000859127FE81915F01B70190E00E946415C8
:1028200031103A94F1E04F1A51084114510471F7F4
:10283000EDC0843611F0893641F5F80127FF07C055
:1028400060817181828193810C5F1F4F08C060811C
:102850007181882777FD8095982F0E5F1F4F4FE677
:10286000B42EB22297FF09C090958095709561951E
:102870007F4F8F4F9F4FF0E8BF2A2AE030E0A4013E
:102880000E949015A82EA81843C0853731F43FEE5A
:10289000B32EB2222AE030E024C099EFB92EB22242
:1028A0008F36B9F020F4883509F0B3C00DC08037F9
:1028B00021F0883709F0ADC002C020E1B22AB4FE91
:1028C0000BC084E0B82A08C024FF09C0E6E0BE2A95
:1028D00006C028E030E005C020E130E002C020E181
:1028E00032E0F801B7FE07C0608171818281938177
:1028F0000C5F1F4F06C06081718180E090E00E5F29
:102900001F4FA4010E949015A82EA818FFE7BF2210
:10291000B6FE0BC02B2D2E7FA51450F4B4FE0AC0BA
:10292000B2FC08C02B2D2E7E05C07A2C2B2D03C0A7
:102930007A2C01C0752C24FF0DC0FE01EA0DF11D9B
:102940008081803311F4297E09C022FF06C0739470
:10295000739404C0822F867809F0739423FD14C009
:1029600020FF0FC05A2C731460F4530C5718732CAB
:1029700008C0B70180E290E02C870E946415739430
:102980002C857314B0F304C0731410F4371801C00D
:10299000312C24FF12C0B70180E390E02C870E9405
:1029A00064152C8522FF1EC021FF03C088E590E03E
:1029B00002C088E790E0B7010CC0822F867891F0C2
:1029C00021FD02C080E201C08BE227FD8DE2B7014C
:1029D00090E00E94641506C0B70180E390E00E9479
:1029E00064155A94A514C0F3AA94F401EA0DF11DDC
:1029F000B701808190E00E946415A110F5CF06C058
:102A0000B70180E290E00E9464153A943110F8CF4B
:102A100043CEF7012681378102C02FEF3FEFC90176
:102A20002C96E2E10C941D16DC01CB01FC01F99916
:102A3000FECF06C0F2BDE1BDF89A319600B40D920A
:102A400041505040B8F70895F999FECF92BD81BD2D
:102A5000F89A992780B50895DC01A40FB51F41505D
:102A6000504048F0CB01840F951F2E910E943D15D8
:102A700041505040D0F70895262FF999FECF92BDCE
:102A800081BDF89A019700B4021639F01FBA20BD33
:102A90000FB6F894FA9AF99A0FBE0895FC010590C2
:102AA000615070400110D8F7809590958E0F9F1F50
:102AB0000895FC016150704001900110D8F7809595
:102AC00090958E0F9F1F08950F931F93CF93DF93C1
:102AD0008C01EB018B8181FD03C00FEF1FEF1AC04A
:102AE00082FF0DC02E813F818C819D81281739077F
:102AF00064F4E881F9810193F983E88306C0E885ED
:102B0000F985802F0995892B41F78E819F81019648
:102B10009F838E83C801DF91CF911F910F910895FC
:102B2000FA01AA27283051F1203181F1E8946F93FE
:102B30006E7F6E5F7F4F8F4F9F4FAF4FB1E03ED0A4
:102B4000B4E03CD0670F781F891F9A1FA11D680F42
:102B5000791F8A1F911DA11D6A0F711D811D911D75
:102B6000A11D20D009F468943F912AE0269F1124EA
:102B70003019305D3193DEF6CF010895462F47704E
:102B8000405D4193B3E00FD0C9F7F6CF462F4F70A9
:102B9000405D4A3318F0495D31FD4052419302D007
:102BA000A9F7EACFB4E0A6959795879577956795AD
:102BB000BA95C9F700976105710508959B01AC01AD
:102BC0000A2E06945795479537952795BA95C9F7D4
:102BD000620F731F841F951FA01D08950E94F61198
:102BE000A59F900DB49F900DA49F800D911D112461
:102BF0000895B7FF0C94EE150E94EE15821B930BFF
:102C000008952F923F924F925F926F927F928F9290
:102C10009F92AF92BF92CF92DF92EF92FF920F936B
:102C20001F93CF93DF93CDB7DEB7CA1BDB0B0FB675
:102C3000F894DEBF0FBECDBF09942A883988488832
:102C40005F846E847D848C849B84AA84B984C884C8
:102C5000DF80EE80FD800C811B81AA81B981CE0FBF
:102C6000D11D0FB6F894DEBF0FBECDBFED010895A4
:042C7000F894FFCF06
:102C7400010000000FF00F0F00000003000000002F
:102C8400CB0F051000003F065B4F666D7D077F6F1D
:102C940098C118C30C8361300F0F0F0FF8789CF1A3
:102CA4009C1DF6E64E616D653A2025732C20536F0A
:102CB4006372653A20257300486967682053636F1F
:102CC40072653A202575004C697665733A2025753E
:102CD400006C6576656C20257500343330333430F0
:042CE400303200008A
:00000001FF
